:100000000C9461000C947E000C947E000C947E0095
:100010000C947E000C947E000C947E000C94F602EE
:100020000C947E000C94B6020C947E000C947E001E
:100030000C947E000C947E000C947E000C947E0048
:100040000C946C020C947E000C947E000C947E0048
:100050000C947E000C947E000C947E000C947E0028
:100060000C947E000C947E0000000000230026000B
:10007000290000000000240027002A0000000000E2
:10008000250028002B0004040404040404040202D4
:100090000202020203030303030301020408102007
:1000A0004080010204081020010204081020000012
:1000B0000008000201000003040700000000000027
:1000C000000011241FBECFEFD8E0DEBFCDBF11E08E
:1000D000A0E0B1E0ECE5F7E002C005900D92AE3093
:1000E000B107D9F721E0AEE0B1E001C01D92AF3118
:1000F000B207E1F70E9405030C94AC030C940000D6
:10010000833081F028F4813099F08230A9F008958D
:100110008730A9F08830C9F08430B1F48091800034
:100120008F7D03C0809180008F7780938000089539
:1001300084B58F7784BD089584B58F7DFBCF809182
:10014000B0008F778093B00008958091B0008F7DCC
:10015000F9CF1F93CF93DF93282F30E0F901E255B9
:10016000FF4F8491F901E656FF4FD491F901EA5708
:10017000FF4FC491CC23A9F0162F81110E9480005B
:10018000EC2FF0E0EE0FFF1FE458FF4FA591B49164
:100190008FB7F894EC91111108C0D095DE23DC9351
:1001A0008FBFDF91CF911F910895DE2BF8CFCF93B2
:1001B000DF9390E0FC01E656FF4F24918A579F4F52
:1001C000FC0184918823D1F090E0880F991FFC01F5
:1001D000EE58FF4FA591B491FC01E458FF4FC59133
:1001E000D49161110EC09FB7F8948C91E22FE095E5
:1001F0008E238C932881E223E8839FBFDF91CF91E8
:1002000008958FB7F894EC91E22BEC938FBFF6CF63
:100210003FB7F89480911B0190911C01A0911D01A2
:10022000B0911E0126B5A89B05C02F3F19F001967D
:10023000A11DB11D3FBFBA2FA92F982F8827BC0140
:10024000CD01620F711D811D911D42E0660F771F68
:10025000881F991F4A95D1F708958F929F92AF9268
:10026000BF92CF92DF92EF92FF920E9408014B0162
:100270005C0188EEC82E83E0D82EE12CF12C0E9480
:100280000801681979098A099B09683E734081054C
:100290009105A8F321E0C21AD108E108F10888EE1F
:1002A000880E83E0981EA11CB11CC114D104E10486
:1002B000F10429F7FF90EF90DF90CF90BF90AF90BF
:1002C0009F908F9008954F925F926F927F928F923E
:1002D0009F92AF92BF92CF92DF92EF92FF920F93D5
:1002E0001F93CF93DF932FB7F894C0901701D0904E
:1002F0001801E0901901F0901A012FBFC80ED91E05
:10030000E11CF11CCDEBD0E009EA10E095E9A92E43
:1003100090E0B92E8FB7F8944090170150901801D3
:100320006090190170901A018FBFFE018491F8014D
:100330009490F5018490882079F081110E948000CA
:10034000E82DF0E0EE0FFF1FE859FF4FA591B491A3
:100350008C91982281E009F480E040910E01509147
:100360000F0160911001709111014415550566054A
:10037000770510F48093010190910001981751F0D6
:100380008093000140920E0150920F016092100183
:1003900070921101809101018130C1F04C145D0413
:1003A0006E047F0408F4B6CF80E0DF91CF911F91F7
:1003B0000F91FF90EF90DF90CF90BF90AF909F9004
:1003C0008F907F906F905F904F90089581E0EDCF78
:1003D0009F92AF92BF92CF92DF92EF92FF920F93D4
:1003E0001F93CF93DF93CDB7DEB72C970FB6F8945A
:1003F000DEBF0FBECDBF01E086E0F82E98E7992E54
:1004000090E080E00E94630181110CC018E7115058
:1004100010931501F092B10084E690E00E94630110
:10042000882341F088E78093150186E08093B1002E
:1004300081E03BC01A3559F78CE291E00E946301DC
:100440008111F0CF8CE0E2E0F1E0DE011196019045
:100450000D928A95E1F7E02EEE0CCE0101965C013B
:100460001E2D6E2D611B115081F0F501C190D190B0
:100470005F01C114D10449F0617085E00E94A900B8
:10048000C6010E946301882361F361E085E00E9458
:10049000A9001111C7CF90921501F092B10088E820
:1004A00093E10E946301882391F02C960FB6F89493
:1004B000DEBF0FBECDBFDF91CF911F910F91FF9097
:1004C000EF90DF90CF90BF90AF909F9008950F5F17
:1004D000043009F095CFE9CF1F920F920FB60F921B
:1004E00011242F933F938F939F93AF93BF9380914A
:1004F000170190911801A0911901B0911A01309142
:10050000160123E0230F2D3758F50196A11DB11DCB
:10051000209316018093170190931801A09319015D
:10052000B0931A0180911B0190911C01A0911D01B3
:10053000B0911E010196A11DB11D80931B019093E6
:100540001C01A0931D01B0931E01BF91AF919F911B
:100550008F913F912F910F900FBE0F901F90189584
:1005600026E8230F0296A11DB11DD2CF1F920F9234
:100570000FB60F9211248F939F9380911401815095
:100580008093140181111FC0909115018091130176
:10059000981719F08BE0809312018091120181501D
:1005A000809312018823B1F080911501809313018B
:1005B0008093B30086E08093140183E88093B000B9
:1005C0008FEF8093B2009F918F910F900FBE0F908D
:1005D0001F9018951092B1008EEF8093B20081E0C9
:1005E0008093140183E08093B000EDCF1F920F92AF
:1005F0000FB60F9211248F9383E08093B0008F91F8
:100600000F900FBE0F901F901895789484B582605C
:1006100084BD84B5816084BD85B5826085BD85B5A6
:10062000816085BD80916E00816080936E00109224
:10063000810080918100826080938100809181009F
:100640008160809381008091800081608093800030
:100650008091B10084608093B1008091B00081608E
:100660008093B00080917A00846080937A008091BA
:100670007A00826080937A0080917A008160809312
:100680007A0080917A00806880937A001092C1008D
:1006900060E08FE00E94D700DEEF17E0C3E008E7DC
:1006A00086E0F82E90E0C92E90E0D92E61E08BE034
:1006B0000E94D70060E08BE00E94A9001092B10078
:1006C000D093B20081E08093140117BBC0937000F7
:1006D000C093B00000931501F092B10061E085E095
:1006E0000E94D70061E085E00E94A9000E94E80115
:1006F000811114C080E395E70E94630181110EC04F
:100700000E94E80181110AC080E395E70E9463011D
:10071000811104C00E94E801882349F00E942D0144
:1007200080E395E70E9463018111F8CFDFCF0E943B
:100730002D0161E08EE00E94D70061E08EE00E9412
:10074000A9008FEF9FEF0E946301C114D10409F447
:0C075000ADCF0E940000AACFF894FFCFAC
:0E075C00AAAABC02F4012C01C8002003000070
:00000001FF
